:020000040800F2
:100000000000022055120008D5100008DD1000087D
:10001000E5100008ED100008F510000800000000D1
:10002000000000000000000000000000FD100008BB
:100030000B11000800000000191100082911000828
:10004000A5120008A5120008A5120008A5120008B4
:10005000A5120008A512000845110008A512000805
:10006000A5120008A5120008A5120008A512000894
:10007000A5120008A5120008A5120008A512000884
:10008000A5120008A5120008A5120008A512000874
:1000900055110008A5120008A5120008A5120008B5
:1000A000A5120008A5120008A5120008A512000854
:1000B000A5120008A5120008A5120008A512000844
:1000C000A5120008A5120008A5120008A512000834
:1000D000A5120008A5120008A51200087D1100084D
:1000E000A5120008A5120008A5120008A512000814
:1000F000A5120008A5120008A5120008A512000804
:10010000A5120008A5120008A5120008A5120008F3
:10011000A5120008A5120008A5120008A5120008E3
:10012000A5120008A5120008A5120008A5120008D3
:10013000A51200080000000000000000A512000841
:100140009D110008A5120008A5120008A5120008BC
:10015000A5120008A5120008A5120008A5120008A3
:10016000A5120008A5120008A5120008A512000893
:10017000A5120008A5120008000000000000000001
:08018000A5120008A5120008F9
:1001900010B5054C237833B9044B13B10448AFF3C1
:1001A00000800123237010BD7C00002000000000AF
:1001B000A04A000808B5034B1BB103490348AFF33D
:1001C000008008BD0000000080000020A04A000858
:1001D00001F0FF01102A2BDB10F0070F08D010F8F8
:1001E000013B013A8B422DD010F0070F42B3F6D1FC
:1001F000F0B441EA012141EA014122F007047FF015
:1002000000070023F0E80256083C85EA010586EA6B
:10021000010685FA47F5A3FA87F586FA47F6A5FAA7
:1002200087F68EB9EED1F0BC01F0FF0102F00702B3
:1002300032B110F8013B013A83EA010313B1F8D15E
:100240000020704701387047002D06BF354603383F
:10025000073815F0010F07D1013015F4807F02BF78
:10026000013015F4C03F0130F0BC0138704700BFC9
:1002700053B94AB9002908BF00281CBF4FF0FF310D
:100280004FF0FF3000F06AB9ADF1080C6DE904CE13
:1002900000F006F8DDF804E0DDE9022304B0704761
:1002A0002DE9F047089D0C46002B4ED194468C4515
:1002B0008646B2FA82F262D94AB1C2F12003914075
:1002C00020FA03F30CFA02FC194300FA02FE4FEA8B
:1002D0001C471FFA8CF6B1FBF7F44FEA1E4307FBED
:1002E000141143EA014304FB06F199420AD91CEBBD
:1002F000030304F1FF3080F01281994240F20F8134
:10030000023C6344591A1FFA8EF3B1FBF7F007FB66
:10031000101143EA014300FB06F69E420AD91CEB8A
:10032000030300F1FF3180F0FC809E4240F2F9802F
:10033000634402389B1B40EA044000211DB1D340B6
:100340000022C5E90032BDE8F0878B4205D90DB126
:10035000C5E9000100210846F5E7B3FA83F1002959
:1003600046D1A34202D39042C0F0F080861A64EBDB
:1003700003030120002DE6D0C5E90063E3E7002A6E
:1003800040F09080A1EB0C044FEA1C481FFA8CF758
:100390000121B4FBF8F64FEA1E4308FB164443EA7A
:1003A000044307FB06F0984208D91CEB030306F14F
:1003B000FF3402D2984200F2CD8026461C1A1FFA62
:1003C0008EF3B4FBF8F008FB104443EA044300FB4F
:1003D00007F79F4208D91CEB030300F1FF3402D258
:1003E0009F4200F2B0802046DB1B40EA0640A5E7B2
:1003F000C1F120068B4022FA06F71F4320FA06FCC3
:1004000004FA01F343EA0C03F44000FA01F8380C53
:100410004FEA1349B4FBF0FE1FFA87FC00FB1E44B1
:1004200049EA04440EFB0CF9A14502FA01F20AD98B
:100430003C190EF1FF3A80F08480A14540F28180A2
:10044000AEF1020E3C44A4EB09041FFA83F9B4FB9D
:10045000F0F300FB134449EA044403FB0CFCA445FD
:1004600007D93C1903F1FF3067D2A44565D9023B97
:100470003C4443EA0E40A0FB0293A4EB0C049C42D4
:10048000CE469C4651D34ED055B1B8EB0E0364EB2B
:100490000C0404FA06F6CB401E43CC40C5E90064C8
:1004A000002150E7C2F1200320FA03F10CFA02FC0C
:1004B00024FA03F394400C434FEA1C4800FA02FE6E
:1004C0001FFA8CF7B3FBF8F008FB1031230C43EA5A
:1004D000014300FB07F1994208D91CEB030300F12B
:1004E000FF362CD299422AD9023863445B1AA4B24F
:1004F000B3FBF8F108FB113344EA034401FB07F3B3
:10050000A34208D91CEB040401F1FF3613D2A34225
:1005100011D902396444E41A41EA004139E704463A
:10052000F0E6084606E7C845AED2B9EB020E63EB2B
:10053000070C0138A8E73146EDE7034699E7304656
:10054000D4E7D6467FE7634402384DE706462346A4
:1005500008460FE7023E634430E700BF704700BF24
:1005600080B582B002AF00F09FFE00F051F800F0BD
:1005700097F900F0B7F800F00FF900F067F900F014
:10058000FFF900F011FA164B1B68DA68144B1B6870
:1005900042F02002DA60A2230193124B0093124B27
:1005A000124A1349134800F031FB4FF4FA6000F08F
:1005B000D7FA12230193104B0093104B104A1149A4
:1005C000114800F023FB40F2C67000F0C9FA0F4B4F
:1005D0001B780133DAB20D4B1A7000BFDBE700BFA6
:1005E000E80000200812002010120020EC0100207A
:1005F0008C010020C0000020F81100200012002013
:10060000E801002030010020980000201C1200208A
:1006100080B594B000AF07F12003302200211846C6
:1006200003F0BEFD07F10C0300221A605A609A60C5
:10063000DA601A610023BB60284B1B6C274A43F029
:1006400080531364254B1B6C03F08053BB60BB6865
:1006500000237B60224B1B68214A43F480431360D4
:100660001F4B1B6803F480437B607B6802233B6263
:100670000123FB6210233B630223BB630023FB6364
:1006800008233B6440237B640223BB640423FB6494
:1006900007F12003184602F075F80346002B01D03D
:1006A00000F0EAFB0F23FB6002233B6100237B6128
:1006B0004FF4C053BB614FF48053FB6107F10C034F
:1006C0000221184602F0D6FA0346002B01D000F0B2
:1006D000D3FB00BF5037BD4680BD00BF003802408D
:1006E0000070004080B500AF284B294A1A60274BA4
:1006F00001225A60254B00229A60244B4FF08072F1
:10070000DA60224B4FF420221A61204B4FF4401242
:100710005A611E4B00221A761C4B00225A761B4B44
:1007200000229A76194B0022DA76184B00221A77AB
:10073000164B00225A77154800F04CFE0346002B5A
:1007400001D000F099FB134B01221A62114B0022D9
:100750001A61104B0D225A620E4B08225A610D4B42
:1007600000229A610B4B0022DA610A4B4FF4A2522D
:100770001A60084B00225A60064B4FF4A2529A604E
:10078000044B0022DA6000BF80BD00BF980000204B
:10079000006400406401002080B500AF284B294A66
:1007A0001A60274B01225A60254B00229A60244B85
:1007B0004FF08072DA60224B4FF420221A61204BF6
:1007C0004FF440125A611E4B00221A761C4B002235
:1007D0005A761B4B00229A76194B0022DA76184B78
:1007E00000221A77164B00225A77154800F0F2FDC6
:1007F0000346002B01D000F03FFB134B01221A628D
:10080000114B00221A61104B0D225A620E4B13221B
:100810005A610D4B00229A610B4B0022DA610A4BA0
:100820004FF410721A60084B00225A60064B4FF4C6
:1008300010729A60044B0022DA6000BF80BD00BFD6
:10084000C000002000680040C001002080B500AF5B
:10085000114B124A1A60104B4FF4E1325A600E4BA2
:1008600000229A600C4B0022DA600B4B00221A61C6
:10087000094B0C225A61084B00229A61064B002258
:10088000DA61054802F016FC0346002B01D000F0A7
:10089000F3FA00BF80BD00BFE80000200048004020
:1008A00080B58AB000AF07F1140300221A605A60C5
:1008B0009A60DA601A6100233B612E4B1B6B2D4A54
:1008C00043F0040313632B4B1B6B03F004033B61E6
:1008D0003B690023FB60274B1B6B264A43F08003D8
:1008E0001363244B1B6B03F08003FB60FB68002346
:1008F000BB60204B1B6B1F4A43F0010313631D4B6E
:100900001B6B03F00103BB60BB6800237B60194BCA
:100910001B6B184A43F002031363164B1B6B03F067
:1009200002037B607B6842F2F0037B610023BB61C2
:100930000123FB6107F1140319460F4801F056FD2E
:1009400002237B614FF40413BB610123FB6107F1B8
:1009500014031946094801F049FD0022032107202C
:1009600001F07BFC072001F094FC00BF2837BD4656
:1009700080BD00BF00380240000802400000024075
:1009800080B500AF0649074800F020FE054800F09A
:10099000FDFE0221034801F02FF900BF80BD00BF1A
:1009A000640100209800002080B500AF0649074888
:1009B00000F00CFE054800F0E9FE0221034801F0BA
:1009C0001BF900BF80BD00BFC0010020C000002097
:1009D00080B582B000AF786009E04FF0FF330122AC
:1009E0007968074802F0B6FB7B6801337B607B685F
:1009F0001B78002BF1D100BF00BF0837BD4680BD7A
:100A0000E800002080B588B000AF03463960FB8065
:100A10000023FB833B4A07F1180312681146198033
:100A20000233120C1A7042F22003BB82364A07F1DD
:100A30000C0392E8030083E80300344B1A6807F1C3
:100A40000C033349184603F08BFB07F10C031846DF
:100A5000FFF7BEFF2F48FFF7BBFFFA8807F1180327
:100A60002D49184603F07CFB0023FB830AE0FA8B38
:100A7000FB8B20323A4412F8081C284AD154FB8BD5
:100A80000133FB83FB8B022BF1D9244B3A22DA7022
:100A9000224B20221A710023FB8325E0FB8B3A684E
:100AA00013441B781A4607F114031D49184603F036
:100AB00057FBFA8B13465B0013440533397D174A05
:100AC000D154FA8B13465B0013440633797D134AE5
:100AD000D154FA8B13465B00134407330F4A20218D
:100AE000D154FB8B0133FB83FB8B072BD6D90B4BEC
:100AF0000A225A770948FFF76BFF00BF2037BD462F
:100B000080BD00BFD04A0008D44A00081812002057
:100B1000B84A0008BC4A0008C04A0008000000208B
:100B2000C84A000880B483B000AF7860094B1B88C6
:100B30001A46094B1978094B9954064B1B88013307
:100B40009AB2044B1A8000BF0C37BD465DF8047B97
:100B5000704700BFF0010020F4110020F4010020D4
:100B600080B582B000AF0346FB80FB88184600F0DA
:100B70000DFC00BF0837BD4680BD80B485B000AF16
:100B800078600B46FB700023BB730023FB730023CC
:100B90003B7300237B730023FB720023FB732AE06B
:100BA000FB7B002B02D100237B7307E0FA78FB7BF1
:100BB000D31A1A467B6813441B787B73BA7B7B7B02
:100BC0005340BB7308233B730FE0BB7BFB72BB7BC3
:100BD0005B00BB7397F90B30002B03DABB7B83F010
:100BE0001D03BB733B7B013B3B733B7B002BECD179
:100BF000FB7B0133FB73FA78FB7B9A42D0D2BB7B41
:100C000018461437BD465DF8047B704790B589B02F
:100C100000AFF860B9607A603B60BA8EBB681A605A
:100C2000BB6808221A61BB6800229A60BB68002278
:100C3000DA603B6807331C7807213868FFF79DFFAF
:100C400003469C420FD13B6B0A221A703B6B013367
:100C500002221A703B682A4A93420BD13B6B023343
:100C60000C221A7006E03B6B00221A703B6B0133BA
:100C700000221A703B6B0633224A12781A70224BFC
:100C80001B78002B08D13B6BDC1D0721386BFFF76D
:100C900074FF034623700BE0FB681C4A934207D1A4
:100CA00007211B48FFF769FF03461A46184BDA7104
:100CB000FB68184A934201D1012200E0022207F1A9
:100CC00014031549184603F04BFA07F114031846AC
:100CD000FFF77EFEBB8E396B1846FFF793FE7B68ED
:100CE0003A6BB968F86800F095FD064B1B7803F085
:100CF0000F03DAB2034B1A7000BF2437BD4690BD14
:100D0000001200201C1200201D120020C000002034
:100D10000812002098000020DC4A0008B0B590B00E
:100D200000AF78607B68274A934215D1264B274A4B
:100D30000021244800F03EFE254A07F1340307CA8B
:100D400003C31A8007F134031846FFF741FE1E491A
:100D5000A220FFF757FE31E07B681E4A93422DD157
:100D60001D4B1E4A00211B4800F024FE1A4BDC7963
:100D700007211948FFF701FF03469C420FD1184A8B
:100D800007F1280307CA03C31A8007F1280318468E
:100D9000FFF71EFE10491220FFF734FE0EE0114B44
:100DA00007F10C041D460FCD0FC495E8070003C4DE
:100DB000228007F10C031846FFF70AFE00BF4037F8
:100DC000BD46B0BD98000020001200204801002060
:100DD000E84A0008C000002010120020A4010020F2
:100DE000F44A0008004B000880B582B000AF03460B
:100DF000FB80FB88022B30D11420FFF7B1FE0221CB
:100E0000184801F08FFC0346002B26D1164B1B78A7
:100E1000002B02D0012B11D01FE0134B1B780133A4
:100E2000DAB2114B1A701148FFF7D2FD07211048B2
:100E3000FFF7A3FE0E4B0022DA710EE00A4B0022F0
:100E40001A700C48FFF7C4FD07210948FFF795FE0B
:100E500003461A46064BDA7100BF00BF0837BD468D
:100E600080BD00BF000002401D1200201C4B000886
:100E7000F8110020244B000880B400AF72B600BF08
:100E800000BFFDE780B483B000AF00237B60104B50
:100E90005B6C0F4A43F4804353640D4B5B6C03F46B
:100EA00080437B607B6800233B60094B1B6C084AD6
:100EB00043F080531364064B1B6C03F080533B607C
:100EC0003B6800BF0C37BD465DF8047B704700BF30
:100ED0000038024080B58CB000AF786007F11C0389
:100EE00000221A605A609A60DA601A617B681B6897
:100EF0004A4A93423ED14A4B1B680133484A136029
:100F0000474B1B68012B0DD10023BB61454B1B6C6C
:100F1000444A43F000731364424B1B6C03F00073AC
:100F2000BB61BB6900237B613E4B1B6B3D4A43F0B9
:100F3000010313633B4B1B6B03F001037B617B6974
:100F40004FF4C053FB6102233B6200237B62032307
:100F5000BB620923FB6207F11C031946324801F00A
:100F600045FA00220221142001F077F9142001F043
:100F700090F94FE07B681B682C4A93424AD10023CA
:100F80003B61284B1B6C274A43F080631364254B5D
:100F90001B6C03F080633B613B69214B1B68013391
:100FA0001F4A13601E4B1B68012B0DD10023FB60F1
:100FB0001C4B1B6C1B4A43F000731364194B1B6CD6
:100FC00003F00073FB60FB680023BB60154B1B6BD9
:100FD000144A43F002031363124B1B6B03F002032A
:100FE000BB60BB686023FB6102233B6200237B6222
:100FF0000323BB620923FB6207F11C0319460C485B
:1010000001F0F4F900220221402001F026F94020ED
:1010100001F03FF900BF3037BD4680BD006400409D
:10102000201200200038024000000240006800400A
:101030000004024080B58AB000AF786007F1140365
:1010400000221A605A609A60DA601A617B681B6835
:101050001D4A934234D100233B611C4B1B6C1B4A3D
:1010600043F480231364194B1B6C03F480233B610E
:101070003B690023FB60154B1B6B144A43F00403D0
:101080001363124B1B6B03F00403FB60FB684FF40C
:1010900040637B610223BB610023FB6103233B624E
:1010A00007237B6207F114031946094801F09EF9F2
:1010B00000220121272001F0D0F8272001F0E9F8D3
:1010C00000BF2837BD4680BD0048004000380240C0
:1010D0000008024080B400AF00BFFDE780B400AF5D
:1010E00000BFFDE780B400AF00BFFDE780B400AFF4
:1010F00000BFFDE780B400AF00BFFDE780B400AFE4
:1011000000BFBD465DF8047B704780B400AF00BFF0
:10111000BD465DF8047B704780B400AF00BFBD469C
:101120005DF8047B7047000080B500AF00F00EF959
:10113000034B1B680133024A136000BF80BD00BF30
:101140001812002080B500AF012001F003FB00BFA2
:1011500080BD000080B500AF054800F073FD054B71
:10116000054A0021024800F025FC00BF80BD00BFF9
:1011700098000020001200204801002080B500AF38
:10118000044802F097F801220349024802F06DF882
:1011900000BF80BDE8000020F411002080B500AF42
:1011A000054800F04FFD054B054A0021024800F0BC
:1011B00001FC00BF80BD00BFC00000201012002055
:1011C000A401002080B586B000AF7860144A154BAA
:1011D000D31A7B617B693B61134B1B68002B02D1E7
:1011E000114B124A1A60104B1A687B6813443A6913
:1011F0009A4207D202F0DCFF03460C221A604FF03D
:10120000FF3309E0084B1B68FB60074B1A687B68DB
:101210001344054A1360FB6818461837BD4680BD65
:101220000000022000040000241200207813002097
:1012300080B400AF064BD3F88830054A43F47003FE
:10124000C2F8883000BFBD465DF8047B704700BF20
:1012500000ED00E0DFF834D00D480E490E4A0023BF
:1012600002E0D458C4500433C4188C42F9D30B4A5A
:101270000B4C002301E013600432A242FBD3FFF7C2
:10128000D7FF02F09BFFFFF76BF9704700000220C9
:10129000000000207C0000208C4B00087C00002017
:1012A00074130020FEE7000080B500AF0E4B1B68F2
:1012B0000D4A43F4007313600B4B1B680A4A43F456
:1012C00080631360084B1B68074A43F48073136004
:1012D000032000F0B7FF002000F008F8FFF7D2FD70
:1012E0000023184680BD00BF003C024080B582B09C
:1012F00000AF7860124B1A68124B1B7819464FF4F6
:101300007A73B3FBF1F3B2FBF3F3184600F0CFFFAF
:101310000346002B01D001230EE07B680F2B0AD877
:10132000002279684FF0FF3000F097FF064A7B6893
:101330001360002300E0012318460837BD4680BD36
:1013400020000020280000202400002080B400AFEE
:10135000064B1B781A46064B1B681344044A13605D
:1013600000BFBD465DF8047B704700BF2800002029
:101370002812002080B400AF034B1B681846BD46FE
:101380005DF8047B704700BF2812002080B584B050
:1013900000AF7860FFF7EEFFB8607B68FB60FB682A
:1013A000B3F1FF3F05D00A4B1B781A46FB68134484
:1013B000FB6000BFFFF7DEFF0246BB68D31AFA6886
:1013C0009A42F7D800BF00BF1037BD4680BD00BFAE
:1013D0002800002080B584B000AF78607B68002BC7
:1013E00001D10123EDE07B6893F82030DBB2002BC4
:1013F00002D17868FFF76EFD7B681B681A687B680E
:101400001B6842F001021A60FFF7B4FFF86012E0B7
:10141000FFF7B0FF0246FB68D31A0A2B0BD97B6893
:101420005B6A43F400327B685A627B68052283F86A
:1014300020200123C5E07B681B685B6803F0010383
:10144000002BE5D07B681B681A687B681B6822F05C
:1014500002021A60FFF78EFFF86012E0FFF78AFFC2
:101460000246FB68D31A0A2B0BD97B685B6A43F4EC
:1014700000327B685A627B68052283F820200123B2
:101480009FE07B681B685B6803F00203002BE5D1DB
:101490007B681B7E012B08D17B681B681A687B6800
:1014A0001B6842F080021A6007E07B681B681A68BC
:1014B0007B681B6822F080021A607B685B7E012BD0
:1014C00008D17B681B681A687B681B6842F0400281
:1014D0001A6007E07B681B681A687B681B6822F04B
:1014E00040021A607B689B7E012B08D17B681B68D9
:1014F0001A687B681B6842F020021A6007E07B686C
:101500001B681A687B681B6822F020021A607B68DF
:10151000DB7E012B08D17B681B681A687B681B681F
:1015200022F010021A6007E07B681B681A687B686B
:101530001B6842F010021A607B681B7F012B08D1E8
:101540007B681B681A687B681B6842F008021A6097
:1015500007E07B681B681A687B681B6822F008023A
:101560001A607B685B7F012B08D17B681B681A6857
:101570007B681B6842F004021A6007E07B681B6806
:101580001A687B681B6822F004021A607B689A68FC
:101590007B68DB681A437B681B691A437B685B695D
:1015A00042EA03017B685B685A1E7B681B680A433A
:1015B000DA617B6800225A627B68012283F820206E
:1015C000002318461037BD4680BD000080B487B0A8
:1015D00000AF786039607B681B687B617B6893F83B
:1015E0002030FB74FB7C012B03D0FB7C022B40F0F2
:1015F000BE80654B7B617B69D3F8003243F001020A
:101600007B69C3F800227B69D3F8003223F47C5253
:101610007B69C3F800227B69D3F800223B685B6AD0
:101620001B021A437B69C3F800223B685B6903F025
:101630001F03012202FA03F3FB607B69D3F81C222B
:10164000FB68DB431A407B69C3F81C223B68DB69FB
:10165000002B23D17B69D3F80C22FB68DB431A40B3
:101660007B69C3F80C223B68DB6819043B685B6844
:101670009BB23A68526919437B69483243F8321089
:101680003B689B6819043B681B689AB23B685B69BE
:101690000A4379694833DB000B445A603B68DB69D5
:1016A000012B22D17B69D3F80C22FB681A437B699A
:1016B000C3F80C223B681B6819043B685B689BB24B
:1016C0003A68526919437B69483243F832103B68E3
:1016D0009B6819043B68DB689AB23B685B690A4304
:1016E00079694833DB000B445A603B689B69002BE7
:1016F00009D17B69D3F80422FB68DB431A407B697C
:10170000C3F8042207E07B69D3F80422FB681A437C
:101710007B69C3F804223B681B69002B09D17B69F4
:10172000D3F81422FB68DB431A407B69C3F8142208
:1017300007E07B69D3F81422FB681A437B69C3F87E
:1017400014223B681B6A012B07D17B69D3F81C224A
:10175000FB681A437B69C3F81C227B69D3F800320B
:1017600023F001027B69C3F80022002306E07B68B6
:101770005B6A43F480227B685A62012318461C3757
:10178000BD465DF8047B70470064004080B584B0BE
:1017900000AF78607B6893F82030DBB2012B2ED14C
:1017A0007B68022283F820207B681B681A687B68AC
:1017B0001B6822F001021A60FFF7DCFDF86012E0FE
:1017C000FFF7D8FD0246FB68D31A0A2B0BD97B68BA
:1017D0005B6A43F400327B685A627B68052283F8B7
:1017E0002020012312E07B681B685B6803F0010383
:1017F000002BE5D17B6800225A62002306E07B685B
:101800005B6A43F400227B685A6201231846103752
:10181000BD4680BD80B489B000AFF860B9607A6021
:101820003B60FB6893F82030FB77FB681B689B6884
:10183000BB61FB7F012B03D0FB7F022B40F0AD800F
:10184000BB6903F08063002B0AD1BB6903F000631E
:10185000002B05D1BB6903F08053002B00F095806D
:10186000BB691B0E03F003037B6101227B699A4075
:101870003B681A60BB689B68002B0DD1BB681B6876
:101880005A05BB68DB68F96809681A437B69183335
:101890001B010B441A600FE0BB685B68DA00BB6891
:1018A0009B681A43BB68DB68F96809681A437B695F
:1018B00018331B010B441A60FB681968BB681A696E
:1018C0007B6918331B010B4404331A60BB681B7D12
:1018D000012B11D1FB681A687B6918331B01134473
:1018E00004331B68FA68116843F480727B6918330B
:1018F0001B010B4404331A607B6807331B781A06FC
:101900007B6806331B781B041A437B6805331B78FE
:101910001B0213437A68043212781046FA68116881
:1019200043EA00027B691B010B4403F5C6731A608E
:101930007B6803331B781A067B6802331B781B0411
:101940001A437B6801331B781B0213437A681278B1
:101950001046FA68116843EA00027B691B010B44D8
:1019600003F5C4731A60FB681A687B6918331B019E
:1019700013441B68FA68116843F001027B6918334D
:101980001B010B441A6000230EE0FB685B6A43F402
:101990000012FB685A62012306E0FB685B6A43F4AD
:1019A0008022FB685A62012318462437BD465DF841
:1019B000047B704780B487B000AFF860B9607A608C
:1019C0003B60FB6893F82030FB75FB7D012B03D057
:1019D000FB7D022B40F00381BB68002B0ED1FB681E
:1019E0001B68DB6803F00303002B16D1FB685B6AFE
:1019F00043F40012FB685A620123F7E0FB681B689E
:101A00001B6903F00303002B07D1FB685B6A43F4F7
:101A10000012FB685A620123E8E0FB681A68BB68A1
:101A20001B331B0113441B6803F004027B689A609C
:101A30007B689B68002B0CD1FB681A68BB681B3362
:101A40001B0113441B685B0DC3F30A027B681A6019
:101A50000BE0FB681A68BB681B331B0113441B684F
:101A6000DB0823F060427B685A60FB681A68BB6839
:101A70001B331B0113441B6803F002027B68DA600E
:101A8000FB681A68BB681B331B01134404331B68D3
:101A900003F00803002B03D07B6808221A610BE0D7
:101AA000FB681A68BB681B331B01134404331B68B3
:101AB00003F00F027B681A61FB681A68BB681B336E
:101AC0001B01134404331B681B0ADAB27B689A615A
:101AD000FB681A68BB681B331B01134404331B6883
:101AE0001B0C9AB27B685A61FB681A68BB681B01C1
:101AF000134403F5DC731B68DAB23B681A70FB68A9
:101B00001A68BB681B01134403F5DC731B681A0ACF
:101B10003B680133D2B21A70FB681A68BB681B01BC
:101B2000134403F5DC731B681A0C3B680233D2B212
:101B30001A70FB681A68BB681B01134403F5DC7359
:101B40001B681A0E3B680333D2B21A70FB681A681E
:101B5000BB681B01134403F5DE731A683B6804334A
:101B6000D2B21A70FB681A68BB681B01134403F5F4
:101B7000DE731B681A0A3B680533D2B21A70FB6821
:101B80001A68BB681B01134403F5DE731B681A0C4B
:101B90003B680633D2B21A70FB681A68BB681B0137
:101BA000134403F5DE731B681A0E3B680733D2B289
:101BB0001A70BB68002B08D1FB681B68DA68FB68E9
:101BC0001B6842F02002DA6007E0FB681B681A69B4
:101BD000FB681B6842F020021A61002306E0FB68E4
:101BE0005B6A43F48022FB685A62012318461C3763
:101BF000BD465DF8047B704780B485B000AF786067
:101C000039607B6893F82030FB73FB7B012B02D09B
:101C1000FB7B022B09D17B681B6859697B681B68B9
:101C20003A680A435A61002306E07B685B6A43F422
:101C300080227B685A62012318461437BD465DF83E
:101C4000047B704780B58AB000AF786000237B6268
:101C50007B681B685B693B627B681B685B68FB6138
:101C60007B681B689B68BB617B681B68DB687B616A
:101C70007B681B681B693B617B681B689B69FB6019
:101C80003B6A03F00103002B7CD0BB6903F0010326
:101C9000002B23D07B681B6801229A60BB6903F08C
:101CA0000203002B03D0786800F083F916E0BB69CB
:101CB00003F00403002B04D07B6A43F400637B62CF
:101CC0000CE0BB6903F00803002B04D07B6A43F4EB
:101CD00080537B6202E0786800F089F9BB6903F405
:101CE0008073002B24D07B681B684FF480729A604D
:101CF000BB6903F40073002B03D0786800F063F92C
:101D000016E0BB6903F48063002B04D07B6A43F4C4
:101D100000537B620CE0BB6903F40063002B04D02A
:101D20007B6A43F480437B6202E0786800F069F9E3
:101D3000BB6903F48033002B24D07B681B684FF40D
:101D400080329A60BB6903F40033002B03D07868BB
:101D500000F043F916E0BB6903F48023002B04D0A4
:101D60007B6A43F400437B620CE0BB6903F400230D
:101D7000002B04D07B6A43F480337B6202E07868F6
:101D800000F049F93B6A03F00803002B0CD07B6993
:101D900003F01003002B07D07B6A43F400737B62CF
:101DA0007B681B681022DA603B6A03F00403002B97
:101DB0000BD07B6903F00803002B06D07B681B68FF
:101DC0000822DA60786800F030F93B6A03F0020319
:101DD000002B09D07B681B68DB6803F00303002B32
:101DE00002D07868FEF79AFF3B6A03F04003002BAD
:101DF0000CD03B6903F01003002B07D07B6A43F43F
:101E000080637B627B681B6810221A613B6A03F067
:101E10002003002B0BD03B6903F00803002B06D0F6
:101E20007B681B6808221A61786800F012F93B6A27
:101E300003F01003002B09D07B681B681B6903F0BB
:101E40000303002B02D0786800F0F9F83B6A03F432
:101E50000033002B0BD0FB6903F01003002B06D0DE
:101E60007B681B6810225A60786800F0FCF83B6AB7
:101E700003F48033002B0BD0FB6903F00803002B25
:101E800006D07B681B6808225A60786800F0F5F875
:101E90003B6A03F40043002B7BD0FB6903F004038F
:101EA000002B72D03B6A03F48073002B08D0FB68D0
:101EB00003F00103002B03D07B6A43F001037B6234
:101EC0003B6A03F40073002B08D0FB6803F00203A5
:101ED000002B03D07B6A43F002037B623B6A03F46E
:101EE0008063002B08D0FB6803F00403002B03D0B1
:101EF0007B6A43F004037B623B6A03F40063002BBC
:101F000043D0FB6803F07003002B3ED0FB6803F066
:101F10007003602B2BD0602B2ED8502B22D0502B4F
:101F20002AD8402B19D0402B26D8302B10D0302B5C
:101F300022D8102B02D0202B05D01DE07B6A43F065
:101F400008037B6219E07B6A43F010037B6214E0B4
:101F50007B6A43F020037B620FE07B6A43F040031F
:101F60007B620AE07B6A43F080037B6205E07B6A68
:101F700043F480737B6200E000BF7B681B689A6952
:101F80007B681B6822F070029A617B681B680422E0
:101F90005A607B6A002B08D07B685A6A7B6A1A43B6
:101FA0007B685A62786800F072F800BF2837BD4637
:101FB00080BD80B483B000AF786000BF0C37BD46F1
:101FC0005DF8047B704780B483B000AF786000BFD9
:101FD0000C37BD465DF8047B704780B483B000AF1A
:101FE000786000BF0C37BD465DF8047B704780B455
:101FF00083B000AF786000BF0C37BD465DF8047B4E
:10200000704780B483B000AF786000BF0C37BD4626
:102010005DF8047B704780B483B000AF786000BF88
:102020000C37BD465DF8047B704780B483B000AFC9
:10203000786000BF0C37BD465DF8047B704780B404
:1020400083B000AF786000BF0C37BD465DF8047BFD
:10205000704780B483B000AF786000BF0C37BD46D6
:102060005DF8047B704780B483B000AF786000BF38
:102070000C37BD465DF8047B704780B483B000AF79
:10208000786000BF0C37BD465DF8047B704780B4B4
:1020900083B000AF786000BF0C37BD465DF8047BAD
:1020A0007047000080B485B000AF78607B6803F0B3
:1020B0000703FB600C4BDB68BB60BA684FF6FF039D
:1020C0001340BB60FB681A02BB68134343F0BF6355
:1020D00043F40033BB60044ABB68D36000BF1437CD
:1020E000BD465DF8047B704700ED00E080B400AFB2
:1020F000044BDB681B0A03F007031846BD465DF876
:10210000047B704700ED00E080B483B000AF03466D
:10211000FB7197F90730002B0BDBFB7903F01F02F3
:10212000074997F907305B09012000FA02F241F8EC
:10213000232000BF0C37BD465DF8047B704700BF0D
:1021400000E100E080B483B000AF03463960FB716A
:1021500097F90730002B0ADB3B68DAB20C4997F994
:1021600007301201D2B20B4483F800230AE03B6827
:10217000DAB20849FB7903F00F03043B1201D2B233
:102180000B441A7600BF0C37BD465DF8047B7047E0
:1021900000E100E000ED00E080B489B000AFF8603D
:1021A000B9607A60FB6803F00703FB61FB69C3F168
:1021B0000703042B28BF0423BB61FB690433062BF0
:1021C00002D9FB69033B00E000237B614FF0FF3243
:1021D000BB6902FA03F3DA43BB681A407B699A4091
:1021E0004FF0FF317B6901FA03F3D9437B680B4061
:1021F000134318462437BD465DF8047B7047000042
:1022000080B582B000AF78607B68013BB3F1807F1E
:1022100001D301230FE00A4A7B68013B53600F2181
:102220004FF0FF30FFF78EFF054B00229A60044B02
:1022300007221A60002318460837BD4680BD00BF3C
:1022400010E000E080B582B000AF78607868FFF7FA
:1022500029FF00BF0837BD4680BD80B586B000AFFE
:102260000346B9607A60FB7300237B61FFF73EFF92
:1022700078617A68B9687869FFF78EFF024697F946
:102280000F3011461846FFF75DFF00BF1837BD46F7
:1022900080BD80B582B000AF0346FB7197F907306F
:1022A0001846FFF731FF00BF0837BD4680BD80B537
:1022B00082B000AF78607868FFF7A2FF0346184647
:1022C0000837BD4680BD80B584B000AF78607B68BC
:1022D0009B6DFB60FFF74EF8B8607B6893F8353074
:1022E000DBB2022B08D07B6880225A657B68002213
:1022F00083F83420012352E07B681B681A687B68EE
:102300001B6822F016021A607B681B685A697B689A
:102310001B6822F080025A617B681B6C002B03D182
:102320007B689B6C002B07D07B681B681A687B68F6
:102330001B6822F008021A607B681B681A687B68B9
:102340001B6822F001021A6013E0FFF713F802463F
:10235000BB68D31A052B0CD97B6820225A657B6891
:10236000032283F835207B68002283F8342003237E
:1023700015E07B681B681B6803F00103002BE4D1A8
:102380007B68DB6D3F229A40FB689A607B68012284
:1023900083F835207B68002283F834200023184618
:1023A0001037BD4680BD80B483B000AF78607B68D5
:1023B00093F83530DBB2022B04D07B6880225A655B
:1023C00001230CE07B68052283F835207B681B68BD
:1023D0001A687B681B6822F001021A600023184605
:1023E0000C37BD465DF8047B7047000080B489B0AF
:1023F00000AF7860396000237B6100233B610023DC
:10240000BB610023FB616BE10122FB6902FA03F36C
:102410007B613B681B687A6913403B613A697B6961
:102420009A4240F05A813B685B6803F00303012B3A
:1024300005D03B685B6803F00303022B30D17B6857
:102440009B68BB61FB695B00032202FA03F3DB4379
:10245000BA691340BB613B68DA68FB695B0002FA4A
:1024600003F3BA691343BB617B68BA699A607B68FE
:102470005B68BB610122FB6902FA03F3DB43BA69C3
:102480001340BB613B685B681B0903F00102FB69F9
:1024900002FA03F3BA691343BB617B68BA695A60F5
:1024A0003B685B6803F00303032B17D07B68DB6892
:1024B000BB61FB695B00032202FA03F3DB43BA69E9
:1024C0001340BB613B689A68FB695B0002FA03F347
:1024D000BA691343BB617B68BA69DA603B685B68C1
:1024E00003F00303022B23D1FB69DA087B6808326F
:1024F00053F82230BB61FB6903F007039B000F22F6
:1025000002FA03F3DB43BA691340BB613B681A6903
:10251000FB6903F007039B0002FA03F3BA69134354
:10252000BB61FB69DA087B680832B96943F822109D
:102530007B681B68BB61FB695B00032202FA03F343
:10254000DB43BA691340BB613B685B6803F003027D
:10255000FB695B0002FA03F3BA691343BB617B6852
:10256000BA691A603B685B6803F44033002B00F0E3
:10257000B4800023FB60604B5B6C5F4A43F4804394
:1025800053645D4B5B6C03F48043FB60FB685B4A08
:10259000FB699B08023352F82330BB61FB6903F0EF
:1025A00003039B000F2202FA03F3DB43BA691340D3
:1025B000BB617B68524A93422BD07B68514A93425D
:1025C00025D07B68504A93421FD07B684F4A934284
:1025D00019D07B684E4A934213D07B684D4A934290
:1025E0000DD07B684C4A934207D07B684B4A93429C
:1025F00001D107230EE008230CE006230AE005239F
:1026000008E0042306E0032304E0022302E00123A0
:1026100000E00023FA6902F0030292009340BA69D5
:102620001343BB613549FB699B080233BA6941F822
:1026300023203B4B9B68BB613B69DB43BA6913407A
:10264000BB613B685B6803F48013002B03D0BA695D
:102650003B691343BB61324ABB699360304BDB6813
:10266000BB613B69DB43BA691340BB613B685B6894
:1026700003F40013002B03D0BA693B691343BB6119
:10268000274ABB69D360264B5B68BB613B69DB4370
:10269000BA691340BB613B685B6803F40033002BED
:1026A00003D0BA693B691343BB611D4ABB695360E0
:1026B0001B4B1B68BB613B69DB43BA691340BB61C1
:1026C0003B685B6803F48033002B03D0BA693B6935
:1026D0001343BB61124ABB691360FB690133FB61A1
:1026E000FB690F2B7FF690AE00BF00BF2437BD46BD
:1026F0005DF8047B704700BF00380240003801409D
:10270000000002400004024000080240000C0240A9
:10271000001002400014024000180240001C024059
:10272000003C014080B485B000AF78600B467B80F0
:102730007B681A697B881340002B02D00123FB734E
:1027400001E00023FB73FB7B18461437BD465DF8A0
:10275000047B704780B582B000AF0346FB80084B16
:102760005A69FB881340002B06D0054AFB88536149
:10277000FB881846FEF738FB00BF0837BD4680BD12
:10278000003C014080B586B000AF78607B68002BCC
:1027900001D1012367E27B681B6803F00103002B72
:1027A00075D0884B9B6803F00C03042B0CD0854B31
:1027B0009B6803F00C03082B12D1824B5B6803F477
:1027C0008003B3F5800F0BD17E4B1B6803F40033FD
:1027D000002B5BD07B685B68002B57D1012342E262
:1027E0007B685B68B3F5803F06D1764B1B68754A02
:1027F00043F4803313601DE07B685B68B3F5A02F62
:102800000CD1704B1B686F4A43F4802313606D4BEF
:102810001B686C4A43F4803313600BE0694B1B6800
:10282000684A23F480331360664B1B68654A23F4BF
:10283000802313607B685B68002B13D0FEF79AFD42
:10284000386108E0FEF796FD02463B69D31A642B17
:1028500001D9032307E25B4B1B6803F40033002B11
:10286000F0D014E0FEF786FD386108E0FEF782FD47
:1028700002463B69D31A642B01D90323F3E1514B80
:102880001B6803F40033002BF0D100E000BF7B682D
:102890001B6803F00203002B63D04A4B9B6803F0D4
:1028A0000C03002B0BD0474B9B6803F00C03082B49
:1028B0001CD1444B5B6803F48003002B16D1414BC1
:1028C0001B6803F00203002B05D07B68DB68012B3B
:1028D00001D00123C7E13B4B1B6823F0F8027B6862
:1028E0001B69DB00374913430B603AE07B68DB6808
:1028F000002B20D0344B01221A60FEF73BFD3861DB
:1029000008E0FEF737FD02463B69D31A022B01D9D6
:102910000323A8E12B4B1B6803F00203002BF0D02C
:10292000284B1B6823F0F8027B681B69DB002549F4
:1029300013430B6015E0244B00221A60FEF71AFDCA
:10294000386108E0FEF716FD02463B69D31A022BF8
:1029500001D9032387E11B4B1B6803F00203002B03
:10296000F0D17B681B6803F00803002B36D07B682E
:102970005B69002B16D0154B01221A60FEF7FAFC9A
:10298000386108E0FEF7F6FC02463B69D31A022BD9
:1029900001D9032367E10B4B5B6F03F00203002BAC
:1029A000F0D01BE0094B00221A60FEF7E3FC38610F
:1029B0000EE0FEF7DFFC02463B69D31A022B07D973
:1029C000032350E10038024000004742800E474296
:1029D000884B5B6F03F00203002BEAD17B681B6816
:1029E00003F00403002B00F097800023FB75814B5C
:1029F0001B6C03F08053002B0FD10023BB607D4B79
:102A00001B6C7C4A43F0805313647A4B1B6C03F0BD
:102A10008053BB60BB680123FB75774B1B6803F4D5
:102A20008073002B18D1744B1B68734A43F4807376
:102A30001360FEF79FFC386108E0FEF79BFC02463E
:102A40003B69D31A022B01D903230CE16A4B1B68A3
:102A500003F48073002BF0D07B689B68012B06D1B8
:102A6000644B1B6F634A43F0010313671CE07B68F0
:102A70009B68052B0CD15F4B1B6F5E4A43F0040330
:102A800013675C4B1B6F5B4A43F0010313670BE05A
:102A9000584B1B6F574A23F001031367554B1B6FAD
:102AA000544A23F0040313677B689B68002B15D0FE
:102AB000FEF760FC38610AE0FEF75CFC02463B6909
:102AC000D31A41F28832934201D90323CBE0494B18
:102AD0001B6F03F00203002BEED014E0FEF74AFC5C
:102AE00038610AE0FEF746FC02463B69D31A41F220
:102AF0008832934201D90323B5E03E4B1B6F03F0AC
:102B00000203002BEED1FB7D012B05D1394B1B6C51
:102B1000384A23F0805313647B689B69002B00F0D4
:102B2000A180344B9B6803F00C03082B5CD07B68BE
:102B30009B69022B41D1314B00221A60FEF71AFC2F
:102B4000386108E0FEF716FC02463B69D31A022BF7
:102B500001D9032387E0274B1B6803F00073002B88
:102B6000F0D17B68DA697B681B6A1A437B685B6A11
:102B70009B011A437B689B6A5B08013B1B041A4359
:102B80007B68DB6A1B061B4913434B601B4B01220E
:102B90001A60FEF7EFFB386108E0FEF7EBFB024638
:102BA0003B69D31A022B01D903235CE0114B1B684C
:102BB00003F00073002BF0D054E0104B00221A6099
:102BC000FEF7D8FB386108E0FEF7D4FB02463B690C
:102BD000D31A022B01D9032345E0064B1B6803F0EF
:102BE0000073002BF0D13DE07B689B69012B07D17E
:102BF000012338E000380240007000406000474286
:102C00001B4B5B68FB607B689B69012B28D0FB68D2
:102C100003F480027B68DB699A4221D1FB6803F0F0
:102C20003F027B681B6A9A421AD1FA6847F6C07362
:102C300013407A68526A9201934211D1FB6803F4FF
:102C400040327B689B6A5B08013B1B049A4207D1B8
:102C5000FB6803F070627B68DB6A1B069A4201D056
:102C6000012300E0002318461837BD4680BD00BF91
:102C70000038024080B584B000AF786039607B686E
:102C8000002B01D10123CCE0684B1B6803F0070344
:102C90003A689A420CD9654B3A68D2B21A70634BC3
:102CA0001B6803F007033A689A4201D00123B8E099
:102CB0007B681B6803F00203002B20D07B681B6835
:102CC00003F00403002B05D0594B9B68584A43F48A
:102CD000E05393607B681B6803F00803002B05D06A
:102CE000534B9B68524A43F460439360504B9B683C
:102CF00023F0F0027B689B684D4913438B607B682F
:102D00001B6803F00103002B44D07B685B68012B38
:102D100007D1474B1B6803F40033002B19D1012363
:102D20007FE07B685B68022B03D07B685B68032BCA
:102D300007D13F4B1B6803F00073002B09D101231F
:102D40006FE03B4B1B6803F00203002B01D1012312
:102D500067E0374B9B6823F003027B685B6834496C
:102D600013438B60FEF706FBF8600AE0FEF702FBF8
:102D70000246FB68D31A41F28832934201D90323F9
:102D80004FE02B4B9B6803F00C027B685B689B0059
:102D90009A42EBD1254B1B6803F007033A689A422D
:102DA0000CD2224B3A68D2B21A70204B1B6803F047
:102DB00007033A689A4201D0012332E07B681B681E
:102DC00003F00403002B08D0194B9B6823F4E05256
:102DD0007B68DB68164913438B607B681B6803F0D4
:102DE0000803002B09D0124B9B6823F460427B68D8
:102DF0001B69DB000E4913438B6000F021F802468B
:102E00000B4B9B681B0903F00F030A49CB5C22FAAA
:102E100003F3094A1360094B1B681846FEF766FA6C
:102E2000002318461037BD4680BD00BF003C02405D
:102E300000380240304B0008200000202400002011
:102E40002DE9B04F94B000AF00237B640023FB64F6
:102E500000233B640023BB64794B9B6803F00C03A5
:102E6000082B0DD0082B00F2E180002B02D0042BA0
:102E700003D0DBE0734BBB64DBE0734BBB64D8E097
:102E80006F4B5B6803F03F037B646D4B5B6803F43F
:102E90008003002B63D06A4B5B689B090022BB63F5
:102EA000FA63BB6BC3F308033B6300237B63D7E97F
:102EB0000C4522462B464FF000004FF0000159010F
:102EC00041EAD261500102460B462146511A39614E
:102ED000294663EB01037B614FF000024FF00003D2
:102EE000D7E904AB59468B01514643EA91635146F9
:102EF0008A015146B2EB0108594663EB01094FF0D4
:102F000000024FF000034FEAC90343EA58734FEA47
:102F1000C80290469946234618EB0303BB602B4634
:102F200049EB0303FB604FF000024FF00003D7E9C9
:102F3000024529464B02214643EAD15321464A0223
:102F4000104619467B6C0022BB62FA62D7E90A235D
:102F5000FDF78EF902460B461346FB6458E0384BEA
:102F60005B689B09002218461146C0F308033B62C8
:102F700000237B62D7E9088942464B464FF00000A8
:102F80004FF00001590141EAD261500102460B465F
:102F90004146B2EB010A494663EB010B4FF00002D8
:102FA0004FF000034FEA8B1343EA9A634FEA8A1209
:102FB000B2EB0A0463EB0B054FF000024FF0000385
:102FC000EB0043EA5473E20014461D464346E318FF
:102FD0003B604B4645EB03037B604FF000024FF034
:102FE0000003D7E9004529468B02214643EA915365
:102FF00021468A02104619467B6C0022BB61FA61A9
:10300000D7E90623FDF734F902460B461346FB6465
:103010000B4B5B681B0C03F0030301335B003B6449
:10302000FA6C3B6CB2FBF3F3BB6402E0054BBB6490
:1030300000BFBB6C18465037BD46BDE8B08F00BF1F
:10304000003802400024F40000127A0080B400AF7F
:10305000034B1B681846BD465DF8047B704700BFF4
:103060002000002080B500AFFFF7F0FF0246054BBF
:103070009B689B0A03F007030349CB5C22FA03F326
:10308000184680BD00380240404B000880B500AFB4
:10309000FFF7DCFF0246054B9B685B0B03F0070361
:1030A0000349CB5C22FA03F3184680BD0038024086
:1030B000404B000880B582B000AF78607B68002B81
:1030C00001D1012342E07B6893F84130DBB2002B51
:1030D00006D17B68002283F840207868FDF7AAFFBC
:1030E0007B68242283F841207B681B68DA687B6850
:1030F0001B6822F40052DA60786800F0BDFD7B683E
:103100001B681A697B681B6822F490421A617B680D
:103110001B685A697B681B6822F02A025A617B6827
:103120001B68DA687B681B6842F40052DA607B68CF
:1031300000225A647B68202283F841207B68202289
:1031400083F842207B6800225A6300231846083720
:10315000BD4680BD80B58AB002AFF860B9603B6003
:103160001346FB8000237B61FB6893F84130DBB2A0
:10317000202B75D1BB68002B02D0FB88002B01D11E
:1031800001236EE0FB6800225A64FB68212283F869
:103190004120FEF7EFF87861FB68FA889A84FB68B3
:1031A000FA88DA84FB689B68B3F5805F08D1FB6816
:1031B0001B69002B04D10023FB61BB68BB6103E0EA
:1031C000BB68FB610023BB612EE03B6800937B6919
:1031D00000228021F86800F01FFB0346002B05D079
:1031E000FB68202283F8412003233AE0FB69002B8F
:1031F0000BD1BB691B881A46FB681B68C2F3080227
:103200005A60BB690233BB6107E0FB691A78FB684F
:103210001B685A60FB690133FB61FB68DB8C9BB266
:10322000013B9AB2FB68DA84FB68DB8C9BB2002B13
:10323000CBD13B6800937B6900224021F86800F005
:10324000EBFA0346002B05D0FB68202283F84120CF
:10325000032306E0FB68202283F84120002300E0DE
:10326000022318462037BD4680BD80B584B000AF2C
:10327000F860B9601346FB80FB6893F84230DBB21C
:10328000202B12D1BB68002B02D0FB88002B01D170
:1032900001230BE0FB6800221A63FB881A46B96819
:1032A000F86800F012FB034600E0022318461037CE
:1032B000BD4680BD80B5BAB000AF78607B681B6842
:1032C0001B68C7F8E4307B681B68DB68C7F8E03030
:1032D0007B681B685B69C7F8DC300023C7F8D8300F
:1032E0000023C7F8D430D7F8E43003F00F03C7F851
:1032F000D830D7F8D830002B0FD1D7F8E43003F00E
:103300002003002B09D0D7F8E03003F02003002B76
:1033100003D0786800F0F2FB5BE2D7F8D830002BDE
:1033200000F0DE80D7F8DC3003F00103002B06D17B
:10333000D7F8E03003F49073002B00F0D180D7F879
:10334000E43003F00103002B0BD0D7F8E03003F496
:103350008073002B05D07B685B6C43F001027B68B7
:103360005A64D7F8E43003F00403002B0BD0D7F8ED
:10337000DC3003F00103002B05D07B685B6C43F06D
:1033800002027B685A64D7F8E43003F00203002B92
:103390000BD0D7F8DC3003F00103002B05D07B689D
:1033A0005B6C43F004027B685A64D7F8E43003F0A6
:1033B0000803002B11D0D7F8E03003F02003002BD6
:1033C00005D1D7F8DC3003F00103002B05D07B6872
:1033D0005B6C43F008027B685A647B685B6C002B73
:1033E00000F0F281D7F8E43003F02003002B08D07E
:1033F000D7F8E03003F02003002B02D0786800F00B
:103400007DFB7B681B685B6903F04003402B0CBFAE
:1034100001230023DBB2C7F8D4307B685B6C03F078
:103420000803002B03D1D7F8D430002B4FD0786895
:1034300000F085FA7B681B685B6903F04003402B52
:1034400041D17B681B681433C7F89C30D7F89C3097
:1034500053E8003FC7F89830D7F8983023F040037E
:10346000C7F8D0307B681B681433D7F8D020C7F872
:10347000A820C7F8A430D7F8A410D7F8A82041E8AE
:103480000023C7F8A030D7F8A030002BD9D17B6833
:10349000DB6B002B13D07B68DB6B7E4A1A657B6885
:1034A000DB6B1846FEF77FFF0346002B16D07B68C8
:1034B000DB6B1B6D7A68D26B104698470EE078681C
:1034C00000F094F90AE0786800F090F906E0786876
:1034D00000F08CF97B6800225A6475E100BF73E14B
:1034E0007B681B6B012B40F04F81D7F8E43003F071
:1034F0001003002B00F04881D7F8E03003F01003F0
:10350000002B00F041810023BB607B681B681B68B7
:10351000BB607B681B685B68BB60BB687B681B68C3
:103520005B6903F04003402B40F0B6807B68DB6BA7
:103530001B685B68A7F8BE30B7F8BE30002B00F000
:1035400045817B689B8DB7F8BE209A4280F03E8112
:103550007B68B7F8BE20DA857B68DB6BDB69B3F587
:10356000807F00F088807B681B680C33C7F8883048
:10357000D7F8883053E8003FC7F88430D7F8843054
:1035800023F48073C7F8B8307B681B680C33D7F816
:10359000B820C7F89420C7F89030D7F89010D7F823
:1035A000942041E80023C7F88C30D7F88C30002BEA
:1035B000D9D17B681B6814337B677B6F53E8003F6E
:1035C0003B673B6F23F00103C7F8B4307B681B688F
:1035D0001433D7F8B420C7F88020FB67F96FD7F809
:1035E000802041E80023BB67BB6F002BE1D17B68E3
:1035F0001B6814333B663B6E53E8003FFB65FB6D75
:1036000023F04003C7F8B0307B681B681433D7F849
:10361000B020FA66BB66B96EFA6E41E800237B669D
:103620007B6E002BE3D17B68202283F842207B68ED
:1036300000221A637B681B680C33FB64FB6C53E845
:10364000003FBB64BB6C23F01003C7F8AC307B6851
:103650001B680C33D7F8AC20BA657B65796DBA6D01
:1036600041E800233B653B6D002BE3D17B68DB6BBE
:103670001846FEF728FE7B6802225A637B689A8D03
:103680007B68DB8D9BB2D31A9BB21946786800F039
:10369000B7F89BE0053A00087B689A8D7B68DB8D64
:1036A0009BB2D31AA7F8CE307B68DB8D9BB2002B80
:1036B00000F08E80B7F8CE30002B00F089807B6858
:1036C0001B680C33BB63BB6B53E8003F7B637B6BB6
:1036D00023F49073C7F8C8307B681B680C33D7F8A5
:1036E000C8207A643B64396C7A6C41E80023FB6340
:1036F000FB6B002BE3D17B681B6814337B627B6A16
:1037000053E8003F3B623B6A23F00103C7F8C43033
:103710007B681B681433D7F8C4203A63FB62F96AEC
:103720003A6B41E80023BB62BB6A002BE3D17B68A4
:10373000202283F842207B6800221A637B681B6882
:103740000C333B613B6953E8003FFB60FB6823F0AF
:103750001003C7F8C0307B681B680C33D7F8C02053
:10376000FA61BB61B969FA6941E800237B617B6951
:10377000002BE3D17B6802225A63B7F8CE3019469A
:10378000786800F03DF823E0D7F8E43003F08003D8
:10379000002B09D0D7F8E03003F08003002B03D0D2
:1037A000786800F043F914E0D7F8E43003F0400300
:1037B000002B0ED0D7F8E03003F04003002B08D0E8
:1037C000786800F083F904E000BF02E000BF00E089
:1037D00000BFE837BD4680BD80B483B000AF7860DD
:1037E00000BF0C37BD465DF8047B704780B483B0E2
:1037F00000AF786000BF0C37BD465DF8047B7047B2
:1038000080B483B000AF78600B467B8000BF0C377C
:10381000BD465DF8047B704780B586B000AFF860A8
:10382000B9603B601346FB713BE03B6AB3F1FF3F7D
:1038300037D0FDF79FFD02463B68D31A3A6A9A4299
:1038400002D33B6A002B01D103233AE0FB681B68DB
:10385000DB6803F00403002B23D0BB68802B20D04F
:10386000BB68402B1DD0FB681B681B6803F0080376
:10387000082B16D100237B61FB681B681B687B61EA
:10388000FB681B685B687B617B69F86800F057F830
:10389000FB6808225A64FB68002283F84020012359
:1038A0000FE0FB681B681A68BB681340BA689A424D
:1038B0000CBF01230023DBB21A46FB799A42B4D035
:1038C000002318461837BD4680BD80B485B000AFD0
:1038D000F860B9601346FB80FB68BA689A62FB68BF
:1038E000FA889A85FB68FA88DA85FB6800225A64B0
:1038F000FB68222283F84220FB681B69002B07D05B
:10390000FB681B68DA68FB681B6842F48072DA6047
:10391000FB681B685A69FB681B6842F001025A6128
:10392000FB681B68DA68FB681B6842F02002DA60FB
:10393000002318461437BD465DF8047B704780B4F9
:1039400095B000AF78607B681B680C337B637B6B42
:1039500053E8003F3B633B6B23F49073FB647B684D
:103960001B680C33FA6C3A64FB63F96B3A6C41E800
:103970000023BB63BB6B002BE5D17B681B68143352
:103980003B623B6A53E8003FFB61FB6923F00103A4
:10399000BB647B681B681433BA6CFA62BB62B96A99
:1039A000FA6A41E800237B627B6A002BE5D17B68E1
:1039B0001B6B012B19D17B681B680C33FB60FB6808
:1039C00053E8003FBB60BB6823F010037B647B6857
:1039D0001B680C337A6CBA617B617969BA6941E81A
:1039E00000233B613B69002BE5D17B68202283F8F3
:1039F00042207B6800221A6300BF5437BD465DF841
:103A0000047B704780B584B000AF78607B689B6BA7
:103A1000FB60FB680022DA85FB680022DA84F86824
:103A2000FFF7E4FE00BF1037BD4680BD80B485B00F
:103A300000AF78607B6893F84130DBB2212B3ED138
:103A40007B689B68B3F5805F14D17B681B69002B92
:103A500010D17B681B6AFB60FB681B881A467B6879
:103A60001B68C2F308025A607B681B6A9A1C7B6859
:103A70001A6208E07B681B6A591C7A6811621A781E
:103A80007B681B685A607B68DB8C9BB2013B9BB2F6
:103A90007A681946D184002B0FD17B681B68DA68DD
:103AA0007B681B6822F08002DA607B681B68DA683A
:103AB0007B681B6842F04002DA60002300E00223CA
:103AC00018461437BD465DF8047B704780B582B058
:103AD00000AF78607B681B68DA687B681B6822F03F
:103AE0004002DA607B68202283F841207868FFF783
:103AF00073FE002318460837BD4680BD80B58CB0E4
:103B000000AF78607B6893F84230DBB2222B40F044
:103B1000AE807B689B68B3F5805F17D17B681B69BB
:103B2000002B13D10023FB627B689B6ABB627B681E
:103B30001B685B689BB2C3F308039AB2BB6A1A8026
:103B40007B689B6A9A1C7B689A6226E07B689B6A0A
:103B5000FB620023BB627B689B68B3F5805F07D084
:103B60007B689B68002B0AD17B681B69002B06D100
:103B70007B681B685B68DAB2FB6A1A7008E07B68D6
:103B80001B685B68DBB203F07F03DAB2FB6A1A7072
:103B90007B689B6A5A1C7B689A627B68DB8D9BB250
:103BA000013B9BB27A681946D185002B5DD17B68B9
:103BB0001B68DA687B681B6822F02002DA607B6889
:103BC0001B68DA687B681B6822F48072DA607B68A5
:103BD0001B685A697B681B6822F001025A617B6886
:103BE000202283F842207B6800225A637B681B6B8B
:103BF000012B35D17B6800221A637B681B680C336C
:103C00007B617B6953E8003F3B613B6923F0100314
:103C10007B627B681B680C337A6A3A62FB61F969E4
:103C20003A6A41E80023BB61BB69002BE5D17B68A0
:103C30001B681B6803F01003102B0AD10023FB60E4
:103C40007B681B681B68FB607B681B685B68FB60AC
:103C5000FB687B689B8D19467868FFF7D1FD02E011
:103C60007868FCF75FFF002302E0002300E00223F6
:103C700018463037BD4680BD2DE9B04FC0B000AF0B
:103C8000C7F8F400D7F8F4301B681B6923F44050E0
:103C9000D7F8F430D968D7F8F4301A6840EA01034D
:103CA0001361D7F8F4309A68D7F8F4301B691A43D7
:103CB000D7F8F4305B691A43D7F8F430DB69134363
:103CC000C7F8F830D7F8F4301B68DB6823F41641E6
:103CD00021F00C01D7F8F4301A68D7F8F8300B430C
:103CE000D360D7F8F4301B685B6923F44070D7F8D1
:103CF000F4309969D7F8F4301A6840EA0103536147
:103D0000D7F8F4301A688F4B9A4205D0D7F8F430C0
:103D10001A688D4B9A4204D1FFF7B8F9C7F8FC0036
:103D200003E0FFF79FF9C7F8FC00D7F8F430DB6930
:103D3000B3F5004F40F00C81D7F8FC300022C7F8F3
:103D4000E830C7F8EC20D7E93A4522462B469118CF
:103D5000B9655B41FB65D7E91623214612EB0108E3
:103D6000294643EB01094FF000024FF000034FEAF0
:103D7000C90343EA58734FEAC8029046994623465E
:103D800018EB0303C7F8E0302B4649EB0303C7F8F1
:103D9000E430D7F8F4305B680022C7F8D830C7F8B1
:103DA000DC20D7E936120B46DB183B65134642EBA5
:103DB00003037B65D7E91423D7E93801FCF758FAE8
:103DC00002460B46614BA3FB02235B091C01D7F89B
:103DD000FC300022C7F8D030C7F8D420D7E93489A6
:103DE00042464B469118B9645B41FB64D7E9122304
:103DF000414612EB010A494643EB010B4FF000022A
:103E00004FF000034FEACB0343EA5A734FEACA026A
:103E100092469B4643461AEB0303C7F8C8304B460D
:103E20004BEB0303C7F8CC30D7F8F4305B680022C3
:103E3000C7F8C030C7F8C420D7E930120B46DB18EA
:103E40003B64134642EB03037B64D7E91023D7E9B5
:103E50003201FCF70DFA02460B4611463B4BA3FB21
:103E600001235B09642202FB03F3CB1ADB0003F19D
:103E70003202364BA3FB02235B095B0003F4F873A9
:103E80001C44D7F8FC300022C7F8B830C7F8BC2073
:103E9000D7E92E8942464B469118B9635B41FB63D3
:103EA000D7E90E2341465118396349464B417B639C
:103EB0004FF000024FF00003D7E90CAB5946CB009E
:103EC000514643EA51735146CA001046194603460B
:103ED00042469B18C7F8B0304B460A4642EB0303F4
:103EE000C7F8B430D7F8F4305B680022C7F8A830C0
:103EF000C7F8AC20D7E92A120B46DB18BB62134681
:103F000042EB0303FB62D7E90A23D7E92C01FCF754
:103F1000AFF902460B460D4BA3FB02135B0964216C
:103F200001FB03F3D31ADB003233084AA2FB03235D
:103F30005B0903F00702D7F8F4301B6822449A604B
:103F400006E100BF00100140001401401F85EB5145
:103F5000D7F8FC300022C7F8A030C7F8A420D7E972
:103F6000288942464B46911839625B417B62D7E90A
:103F7000082341465418494643EB01054FF000021F
:103F80004FF00003EB0043EA5473E20014461D4671
:103F90004346E318C7F898304B4645EB0303C7F890
:103FA0009C30D7F8F4305B680022C7F89030C7F82F
:103FB00094204FF000024FF00003D7E92445294632
:103FC0008B00214643EA917321468A00D7E92601F6
:103FD000FCF74EF902460B46604BA3FB02235B093C
:103FE0001C01D7F8FC300022C7F88830C7F88C20B5
:103FF000D7E9228942464B469118B9615B41FB6182
:10400000D7E9062341465118396149464B417B6146
:104010004FF000024FF00003D7E904AB5946CB0044
:10402000514643EA51735146CA00104619460346A9
:1040300042469B18C7F880304B460A4642EB0303C2
:10404000C7F88430D7F8F4305B680022BB67FA67A2
:104050004FF000024FF00003D7E91E8949468B005C
:10406000414643EA917341468A00D7E92001FCF7B3
:10407000FFF802460B461146384BA3FB01235B09B0
:10408000642202FB03F3CB1A1B013233334AA2FB37
:1040900003235B0903F0F0031C44D7F8FC30002233
:1040A0003B677A67D7E91C8942464B469118B9604D
:1040B0005B41FB60D7E9022341465118396049460C
:1040C0004B417B604FF000024FF00003D7E900AB9B
:1040D0005946CB00514643EA51735146CA00104637
:1040E0001946034642469B18BB664B460A4642EBBE
:1040F0000303FB66D7F8F4305B6800223B667A6600
:104100004FF000024FF00003D7E9188949468B00B1
:10411000414643EA917341468A00D7E91A01FCF708
:10412000A7F802460B460D4BA3FB02135B09642163
:1041300001FB03F3D31A1B013233084AA2FB03230A
:104140005B0903F00F02D7F8F4301B6822449A6031
:1041500000BF07F58077BD46BDE8B08F1F85EB51E6
:104160000EB400B59CB01DAB029006906FF00041FC
:10417000094807910491094953F8042B05910068F7
:10418000019302A900F094F9029B00221A701CB05E
:104190005DF804EB03B070472C0000200802FFFF1D
:1041A00002440346934200D1704703F8011BF9E72C
:1041B000014B1868704700BF2C00002070B50D4DF2
:1041C0000D4C641BA4100026A64209D10B4D0C4CCB
:1041D00000F066FC641BA4100026A64205D170BD49
:1041E00055F8043B98470136EEE755F8043B9847ED
:1041F0000136F2E7844B0008844B0008844B00082A
:10420000884B00087047704738B50546002941D0F3
:1042100051F8043C0C1F002BB8BFE41800F0E0F884
:104220001D4A136833B9636014602846BDE83840FE
:1042300000F0DCB8A34208D9206821188B4201BFE6
:1042400019685B6809182160EDE71A465B680BB1D5
:10425000A342FAD911685018A0420BD1206801443A
:10426000501883421160E0D118685B6853600844BD
:104270001060DAE702D90C232B60D6E720682118FA
:104280008B4204BF19685B68636004BF0918216032
:104290005460CAE738BD00BF7013002070B50F4EE0
:1042A0000C463168054611B900F0A6FB3060214686
:1042B000284600F0A1FB431C03D14FF0FF342046F9
:1042C00070BDC41C24F00304A042F8D0211A284673
:1042D00000F092FB0130F2D1EFE700BF6C13002039
:1042E0002DE9F843CD1C25F0030508350C2D38BF0A
:1042F0000C25002D064601DBA94204D90C233360AE
:104300000020BDE8F883DFF8D48000F069F8D8F821
:1043100000301C4644BB29463046FFF7BFFF431C14
:10432000044658D1D8F800402746002F43D1002C2E
:104330004BD023683946304604EB030900F05CFBA0
:10434000814542D121686D1A29463046FFF7A6FF04
:1043500001303AD023682B442360D8F800305A68E3
:1043600062BBC8F800700FE02268521B20D40B2AF1
:1043700017D96119A342256018BF5960636808BF47
:10438000C8F8001062514B60304600F02FF804F17D
:104390000B00231D20F00700C21A1CBF1B1AA350DC
:1043A000AFE76268A3420CBFC8F800205A60EBE791
:1043B00023466468AEE73C467F68B6E71A465B680A
:1043C000A342FBD100235360DEE70C233360304669
:1043D00000F00CF894E70560D6E700BF70130020EA
:1043E0000148FFF70FBF00BF681300200148FFF727
:1043F0000ABF00BF681300202DE9F0478E681F46F2
:10440000BE420B6882460C4690462DD8B1F90C206E
:1044100012F4906F26D06569096905EB4505A3EB99
:10442000010905EBD5757B1C4B446D109D4238BFCF
:104430001D46530527D52946FFF752FF064660B3B0
:1044400021694A4600F0E8FAA38923F4906343F017
:104450008003A381266165614E44A5EB09052660B2
:10446000A5603E46BE4200D93E46206832464146DF
:1044700000F0A8FAA3689B1BA36023683344236061
:104480000020BDE8F0872A4600F0D4FA064600284E
:10449000E0D121695046FFF7B7FE0C23CAF800307F
:1044A000A38943F04003A3814FF0FF30E9E7000008
:1044B0002DE9F04F98468B891B069DB007460D46A7
:1044C000144610D50B6973B94021FFF709FF286026
:1044D000286130B90C233B604FF0FF301DB0BDE8C0
:1044E000F08F40236B610023099320238DF829303E
:1044F000CDF80C803023DFF89C818DF82A304FF006
:10450000010923469A4613F8012B0AB1252AF9D14D
:10451000BAEB040B0BD05B46224629463846FFF720
:104520006BFF013000F0A780099A5A4409929AF86B
:104530000030002B00F09F8000234FF0FF32CDE9C8
:1045400005230AF1010A049307938DF853301A9357
:104550005446052214F8011B4E48FBF739FE049A15
:10456000D8B9D00644BF20238DF85330110744BF7B
:104570002B238DF853309AF800302A2B15D0079A48
:10458000544600204FF00A0C214611F8013B303B05
:10459000092B4BD9B0B1079214E0A0EB080309FA3C
:1045A00003F313430493A246D2E7039B191D1B6830
:1045B0000391002BBBBF5B4242F0020207930793BB
:1045C000B8BF049223782E2B0AD163782A2B32D1DC
:1045D000039B1A1D1B68039243EAE373023405939D
:1045E000DFF8C0A0217803225046FBF7F1FD38B177
:1045F000049BA0EB0A004022824013430134049341
:1046000014F8011B24488DF828100622FBF7E0FD62
:10461000002836D0214B1BBB039B073323F0070335
:1046200008330393099B334409936AE70CFB023276
:104630000C460120A8E700230134059319464FF0EA
:104640000A0C204610F8012B303A092A03D9002B16
:10465000C6D00591C4E70CFB012104460123F0E715
:1046600003AB00932A460E4B04A93846AFF30080F3
:10467000421C0646D6D1AB895B063FF52DAF0998A3
:104680002CE703AB00932A46054B04A9384600F0FB
:1046900079F8EDE7484B0008524B00080000000095
:1046A000F94300084E4B00082DE9F047164698469E
:1046B0008A680B69DDF820909342B8BF13463360D7
:1046C00091F8432007460C460AB101333360236852
:1046D000990642BF336802333360256815F006053A
:1046E00006D104F1190AE36832689B1AAB4226DC52
:1046F00094F843302268003B18BF012392062BD464
:1047000004F1430241463846C84701301ED02368B1
:10471000226903F00603042B02BFE5683368ED1A33
:10472000A3680CBF25EAE57500259342C4BF9B1A18
:10473000ED1800261A34B5421AD1002008E00123F2
:10474000524641463846C847013003D14FF0FF304A
:10475000BDE8F0870135C6E7E1185A1C302081F822
:104760004300224494F8451082F843100233C7E70F
:104770000123224641463846C8470130E6D001367B
:10478000D9E700002DE9FF470F7E0C9E782F914658
:1047900080460C469A4601F1430207D8622F0AD898
:1047A000002F00F0D280582F00F0B98004F14206AB
:1047B00084F842703AE0A7F16303152BF6D801A103
:1047C00051F823F01D48000831480008AD470008A3
:1047D000AD470008AD470008AD4700083148000864
:1047E000AD470008AD470008AD470008AD470008D9
:1047F000314900085B480008EB480008AD47000855
:10480000AD47000853490008AD4700085B48000861
:10481000AD470008AD470008F348000833681A1D8B
:104820001B68326004F1420684F8423001239DE0A7
:1048300033682068191D3160060601D51D6803E044
:104840004506FBD5B3F90050002D03DA2D236D4248
:1048500084F8433059480A2311E021683368080678
:1048600053F8045B02D4490648BFADB26F2F5348DA
:10487000336014BF0A230823002184F843106668BC
:10488000A660002EA2BF216821F0040121600DB9AD
:10489000002E4BD01646B5FBF3F103FB1157C75D55
:1048A00006F8017D2F46BB420D46F4D9082B0BD1EB
:1048B0002368DF0708D5236961689942DEBF30238A
:1048C00006F8013C06F1FF36921B2261CDF800A0EC
:1048D0004B4603AA21464046FFF7E6FE01304AD187
:1048E0004FF0FF3004B0BDE8F087236843F02003A9
:1048F00023603348782784F84570236831681F06A1
:1049000051F8045B02D45F0648BFADB23160D907ED
:1049100044BF43F0200323601DB11023ACE72748B8
:10492000E9E7236823F020032360F6E71646BDE796
:10493000336825686169181D30602E061B6801D533
:10494000196002E06806FBD5198000232361164632
:10495000BCE733681A1D32601E6862680021304669
:10496000FBF736FC08B1801B60606368236100239D
:1049700084F84330AAE72369324649464046D04787
:104980000130ADD023689B0713D4E068039B9842A5
:10499000B8BF1846A6E70123324649464046D047ED
:1049A00001309DD00135E36803995B1AAB42F2DC1C
:1049B000EBE7002504F11906F5E700BF594B0008A5
:1049C0006A4B0008884210B501EB020402D9844208
:1049D000234607D8431EA14208D011F8012B03F843
:1049E000012FF8E7024401468A4200D110BD13F8B6
:1049F000014D02F8014DF7E738B5064D0023044696
:104A000008462B60FCF7DEFB431C02D12B6803B188
:104A1000236038BD641300200A44914200F1FF3343
:104A200000D1704710B511F8014B03F8014F9142C6
:104A3000F9D110BD2DE9F041804615460C4621B94B
:104A4000BDE8F0411146FFF74BBC2AB9FFF7DCFB8C
:104A500000242046BDE8F08100F01AF885420646A1
:104A600002D8B5EB500FF4D829464046FFF738FC82
:104A700007460028ECD0B5422A46214628BF3246D8
:104A8000FFF7CAFF21464046FFF7BEFB3C46E0E782
:104A900051F8043C181F002BBCBF0B58C0187047BE
:104AA000F8B500BFF8BC08BC9E467047F8B500BF1B
:084AB000F8BC08BC9E467047EB
:104AB8002564000020000000253033580000000065
:104AC800253032580000000020202000202020201F
:104AD8002020202043414E2025752054580A0000EC
:104AE80043414E20312052580A00000043414E20D5
:104AF800322052580A00000043414E2032205258BA
:104B0800204552524F522057524F4E47204352434E
:104B18000A0000004947204F46460A002D3E20491A
:104B280047204F4E0A00000000000000000000006F
:104B3800010203040607080900000000010203043B
:104B4800232D302B2000686C4C006566674546476E
:104B580000303132333435363738394142434445F1
:104B68004600303132333435363738396162636460
:044B7800656600006E
:084B7C0054B6FF7F01000000A8
:044B8400B50100086F
:044B8800910100088F
:104B8C005858583A2044312044322044332044347D
:104B9C00204435204436204437204438202000005F
:104BAC000024F40010000000010000003000002080
:104BBC00000000002C12002094120020FC12002097
:104BCC0000000000000000000000000000000000D9
:104BDC0000000000000000000000000000000000C9
:104BEC0000000000000000000000000000000000B9
:0C4BFC00000000000000000000000000AD
:040000050800125588
:00000001FF
